:100000000C9434000C9453000C946A000C9451002E
:100010000C9451000C9451000C9451000C9451001C
:100020000C9451000C9451000C9451000C948100DC
:100030000C9451000C9451000C9451000C945100FC
:100040000C9451000C9451000C94D3000C9451006A
:100050000C9451000C9451000C9451000C945100DC
:100060000C9451000C94510011241FBECFEFD8E026
:10007000DEBFCDBF12E0A0E0B2E001C01D92A6310C
:10008000B107E1F712E0A0E0B1E0E4E0F9E002C07E
:1000900005900D92A030B107D9F70E9455010C943C
:1000A00080040C9400001F920F920FB60F9211243F
:1000B0008F939F93809100029091010201969093FB
:1000C0000102809300029F918F910F900FBE0F90BD
:1000D0001F9018951F920F920FB60F9211248F93B5
:1000E0009F938091020290910302019690930302E4
:1000F000809302029F918F910F900FBE0F901F90DF
:1001000018951F920F920FB60F9211242F933F93C1
:100110004F935F936F937F938F939F93AF93BF930F
:10012000EF93FF93E898E9986091000270910102C3
:10013000882777FD8095982F0E94FB016093040229
:100140007093050280930602909307026091020269
:1001500070910302882777FD8095982F0E94FB01FC
:10016000609308027093090280930A0290930B0235
:1001700010920302109202021092010210920002E9
:10018000E89AE99AFF91EF91BF91AF919F918F917A
:100190007F916F915F914F913F912F910F900FBE83
:1001A0000F901F9018951F920F920FB60F92112467
:1001B0008F939F93EF93FF938091C60080930D02DE
:1001C00080911402E82FF0E090910D02E25FFD4F64
:1001D00090838F5F8093140280911402823028F004
:1001E00081E080930C0210921402FF91EF919F9195
:1001F0008F910F900FBE0F901F90189552985A9A9A
:1002000053985B9A569A239A0895E9E6F0E0808124
:100210008360808380818C6080838DB383608DBB9D
:10022000089589E196E09093890080938800E1E841
:10023000F0E0808188608083808185608083EFE644
:10024000F0E0808182608083089581E087BD84B57D
:10025000806884BD84B5836084BD85B5826085BDBA
:10026000089581E08093B300E0EBF0E08081806846
:100270008083808183608083E1EBF0E08081826015
:100280008083089586E08093C200E1ECF0E08081F5
:1002900088698083E0ECF0E0808182608083109246
:1002A000C50083E38093C40008950F931F93CF93F9
:1002B000DF930E9442010E94FE000E9405010E94FD
:1002C00011010E9425010E943101789401E0C0E9EA
:1002D000D1E012E080910C028823F1F080910E02AF
:1002E000813021F480910F0287BD08C080910E02F9
:1002F000823091F480910F028093B30010920E022D
:1003000010920F021092100210921102109212021B
:100310001092130210920C0280916F008D7F8093D7
:100320006F008091C00085FFFCCF0093C600209134
:10033000040230910502409106025091070280911B
:10034000C00085FFFCCFCA01B9010E945902609329
:10035000C60088EC90E0FE013197F1F70197D9F7DC
:100360008091C00085FFFCCF1093C6002091080249
:100370003091090240910A0250910B028091C00015
:1003800085FFFCCFCA01B9010E9459026093C600E3
:1003900080916F00826080936F009CCF8091C0003D
:1003A00087FFFCCF8091C6000895982F8091C000F0
:1003B00085FFFCCF9093C6000895FC0190E00BC030
:1003C0002081222351F08091C00085FFFCCF209333
:1003D000C6009F5F3196961798F3089520E030E0AD
:1003E00006C0FC01E20FF31F10822F5F3F4F26175C
:1003F0003707BCF30895A8E0B0E0E1E0F2E00C9428
:1004000052049B01AC0183E08983DA01C90188278A
:10041000B7FD83959927AA27BB27B82E211531054B
:100420004105510519F482E089833AC08823A9F077
:10043000203080E0380780E0480780E8580729F43A
:1004400060E070E080E09FEC30C0EE24FF24870184
:10045000E21AF30A040B150B02C079018A018EE13E
:10046000C82ED12CDC82CB82ED82FE820F831887CE
:10047000C801B7010E94AD0201971816190684F44D
:10048000082E04C0EE0CFF1C001F111F0A94D2F7A7
:10049000ED82FE820F831887C81AD90ADC82CB82CC
:1004A000BA82CE0101960E94FC022896E9E00C94E3
:1004B0006E04ACE0B0E0EFE5F2E00C94590469831F
:1004C0007A838B839C83CE010196BE016B5F7F4F45
:1004D0000E94D1038D81823061F1823050F18430ED
:1004E00021F48E81882351F12EC02F81388537FD6C
:1004F00020C06E812F3131051CF06623F9F023C036
:100500008EE190E0821B930B29853A854B855C85B3
:1005100004C056954795379527958A95D2F7662357
:10052000B1F050954095309521953F4F4F4F5F4F1B
:100530000EC020E030E040E050E009C02FEF3FEF78
:100540004FEF5FE704C020E030E040E050E8B90141
:10055000CA012C96E2E00C947504EF92FF920F937F
:100560001F937B018C0180E0E81680E0F80681E0B3
:10057000080780E0180788F48FEFE816F1040105FA
:10058000110531F028F088E090E0A0E0B0E017C05D
:1005900080E090E0A0E0B0E012C080E0E81680E0EB
:1005A000F80680E0080781E0180728F088E190E06D
:1005B000A0E0B0E004C080E190E0A0E0B0E020E284
:1005C00030E040E050E0281B390B4A0B5B0B04C0C5
:1005D00016950795F794E7948A95D2F7F701E050BE
:1005E000FF4F8081281B310941095109C9011F9121
:1005F0000F91FF90EF900895DF92EF92FF920F938B
:100600001F93FC01E480F58006811781D1808081F1
:10061000823048F480E090E0A0E1B0E0E82AF92AD6
:100620000A2B1B2BA5C0843009F49FC0823021F413
:10063000EE24FF24870105C0E114F1040105110532
:1006400019F4E0E0F0E096C0628173819FEF6238B8
:1006500079070CF05BC022E83FEF261B370B2A31ED
:1006600031052CF020E030E040E050E02AC0B80135
:10067000A701022E04C076956795579547950A9471
:10068000D2F781E090E0A0E0B0E004C0880F991FAD
:10069000AA1FBB1F2A95D2F70197A109B1098E2184
:1006A0009F21A023B1230097A105B10521F081E08E
:1006B00090E0A0E0B0E09A01AB01282B392B4A2B47
:1006C0005B2BDA01C9018F779070A070B070803415
:1006D0009105A105B10539F427FF09C0205C3F4F02
:1006E0004F4F5F4F04C0215C3F4F4F4F5F4FE0E0E3
:1006F000F0E02030A0E03A07A0E04A07A0E45A0763
:1007000010F0E1E0F0E079018A0127C0603871055E
:1007100064F5FB01E158FF4FD801C7018F77907056
:10072000A070B07080349105A105B10539F4E7FEE1
:100730000DC080E490E0A0E0B0E004C08FE390E062
:10074000A0E0B0E0E80EF91E0A1F1B1F17FF05C04E
:1007500016950795F794E794319687E016950795D7
:10076000F794E7948A95D1F705C0EE24FF2487011A
:10077000EFEFF0E06E2F679566276795902F9F77D4
:10078000D794DD24D7948E2F8695492F462B582F4A
:100790005D29B701CA011F910F91FF90EF90DF9083
:1007A0000895FC01DB01408151812281622F6F7726
:1007B00070E0221F2227221F9381892F880F822B0E
:1007C000282F30E0991F9927991F11969C93119714
:1007D00021153105A9F5411551056105710511F482
:1007E00082E037C082E89FEF13969C938E93129716
:1007F0009A01AB0167E0220F331F441F551F6A9512
:10080000D1F783E08C930DC0220F331F441F551F77
:1008100012968D919C911397019713969C938E93AA
:100820001297203080E0380780E0480780E45807BE
:1008300058F314962D933D934D935C931797089519
:100840002F3F310579F4411551056105710519F402
:1008500084E08C93089564FF03C081E08C9312C000
:100860001C9210C02F57304013963C932E93129732
:1008700083E08C9387E0440F551F661F771F8A958E
:10088000D1F7706414964D935D936D937C93179795
:1008900008952F923F924F925F926F927F928F9224
:1008A0009F92AF92BF92CF92DF92EF92FF920F93FF
:1008B0001F93CF93DF93CDB7DEB7CA1BDB0B0FB609
:1008C000F894DEBF0FBECDBF09942A8839884888C6
:1008D0005F846E847D848C849B84AA84B984C8845C
:1008E000DF80EE80FD800C811B81AA81B981CE0F53
:1008F000D11D0FB6F894DEBF0FBECDBFED01089538
:04090000F894FFCF99
:1009040000010202030303030404040404040404B2
:100914000505050505050505050505050505050583
:100924000606060606060606060606060606060663
:100934000606060606060606060606060606060653
:100944000707070707070707070707070707070733
:100954000707070707070707070707070707070723
:100964000707070707070707070707070707070713
:100974000707070707070707070707070707070703
:1009840008080808080808080808080808080808E3
:1009940008080808080808080808080808080808D3
:1009A40008080808080808080808080808080808C3
:1009B40008080808080808080808080808080808B3
:1009C40008080808080808080808080808080808A3
:1009D4000808080808080808080808080808080893
:1009E4000808080808080808080808080808080883
:1009F4000808080808080808080808080808080873
:00000001FF
